S0130000526F626F7469632041726D2E73726563FF
S11300000C9472000C948F000C948F000C948F004D
S11300100C948F000C948F000C948F000C948F0020
S11300200C948F000C948F000C948F000C948F0010
S11300300C948F000C948F000C948F000C948F0000
S11300400C948F000C942E010C9459010C947B0198
S11300500C949D010C948F000C948F000C948F00D1
S11300600C948F000C9439020C948F000C948F0024
S11300700C948F000C948F000C948F000C948F00C0
S11300800C948F000C948F000C948F000C948F00B0
S11300900C948F000C948F000C948F000C948F00A0
S11300A00C948F000C948F000C948F000C948F0090
S11300B00C948F000C948F000C948F000C948F0080
S11300C00C948F000C948F000C948F000C948F0070
S11300D00C948F000C948F000C948F000C948F0060
S11300E00C948F0011241FBECFEFD1E2DEBFCDBF31
S11300F012E0A0E0B2E0E4E2F6E002C005900D9266
S1130100A030B107D9F712E0A0E0B2E001C01D921F
S1130110A931B107E1F70E94B9020C9410030C94C1
S113012000008FEF8093040110920501109280006B
S1130130E1E8F0E010821092820081E090E7909371
S11301408500809384008FEF9FE8909387008093CD
S1130150860081E080838FE080936F007894089517
S1130160482F50E023EA30E0429FC001439F900DA6
S1130170529F900D112483539347909309028093C7
S113018008020895482F50E023EA30E0429FC0015E
S1130190439F900D529F900D112483539347909346
S11301A01102809310020895482F50E023EA30E0B2
S11301B0429FC001439F900D529F900D1124835381
S11301C0934790930702809306020895482F50E0C6
S11301D023EA30E0429FC001439F900D529F900D4F
S11301E011248353934790930F0280930E02089532
S11301F0482F50E023EA30E0429FC001439F900D16
S1130200529F900D11248353934790931802809327
S113021017020895482F50E023EA30E0429FC001BE
S1130220439F900D529F900D1124835393479093B5
S11302300D0280930C020895482F50E023EA30E029
S1130240429FC001439F900D529F900D11248353F0
S1130250934790930B0280930A0208951F920F9282
S11302600FB60F9211248F93EF93FF9380910502A1
S1130270882329F4E5E0F1E080818D7F80838091FB
S11302800502813029F4E5E0F1E080818B7F8083F1
S113029080910502823029F4E5E0F1E080818F77D6
S11302A08083FF91EF918F910F900FBE0F901F905D
S11302B018951F920F920FB60F9211248F93EF93FC
S11302C0FF9380910502882329F4E5E0F1E0808121
S11302D0877F808380910502813029F4E5E0F1E095
S11302E080818F7E8083FF91EF918F910F900FBE5D
S11302F00F901F9018951F920F920FB60F92112412
S11303008F93EF93FF9380910502882329F4E5E00E
S1130310F1E080818F7D808380910502813029F412
S1130320E5E0F1E080818F7B8083FF91EF918F91F5
S11303300F900FBE0F901F9018951F920F920FB63B
S11303400F9211248F939F93EF93FF9381E090E793
S11303509093850080938400809105028F5F809341
S11303600502883018F01092050202C0882319F59E
S1130370E5E0F1E080818260808380818860808311
S11303808081806280838091080290910902909319
S113039089008093880080910602909107029093CF
S11303A08B0080938A008091170290911802909399
S11303B08D0080938C0080910502813019F5E5E071
S11303C0F1E080818460808380818061808380818A
S11303D0806480838091100290911102909389002F
S11303E08093880080910E0290910F0290938B006D
S11303F080938A0080910C0290910D0290938D005D
S113040080938C0080910502823069F4E5E0F1E08C
S113041080818068808380910A0290910B0290937E
S1130420890080938800FF91EF919F918F910F90A5
S11304300FBE0F901F9018958093C600E0ECF0E07B
S1130440808186FFFDCF8FEF9FE80197F1F700C011
S113045000000895CF93DF93EC018881882331F065
S113046021960E941C0289918823D9F7DF91CF91AC
S113047008951F920F920FB60F9211242F933F935A
S11304804F935F936F937F938F939F93AF93BF9398
S1130490CF93DF93EF93FF93809101029091C60075
S11304A0E2E0F2E0E80FF11D90838F5F8093010298
S11304B095E09A95F1F7833009F048C01092010253
S11304C0809100028F5F809300028330E1F08430DA
S11304D028F4813051F08230C9F50EC0853039F1ED
S11304E08530C0F0863091F529C082E092E00E9408
S11304F0EA020E94B0002AC082E092E00E94EA026E
S11305000E94C20023C082E092E00E94EA020E949C
S1130510D4001CC0C2E0D2E0CE010E94EA020E94D4
S1130520E600CE010E94EA020E94F8000FC082E0B9
S113053092E00E94EA020E940A0108C082E092E06E
S11305400E94EA020E941C0110920002FF91EF91A6
S1130550DF91CF91BF91AF919F918F917F916F91D7
S11305605F914F913F912F910F900FBE0F901F906D
S11305701895E1ECF0E0808188698083E2ECF0E09A
S113058080818660808387E08093C4001092C500D8
S113059078940E9491008FEF9FEFA6E881509040DD
S11305A0A040E1F700C000008AE50E94B0008AE59F
S11305B00E94C2008AE50E94D4008AE50E94E600F7
S11305C08AE50E94F8008AE50E940A018AE50E94F1
S11305D01C01FFCFFC0188279927E8942191203240
S11305E0E9F3293010F02E30C8F32B3241F02D32CC
S11305F039F4689404C00E940803820F911D21916C
S113060020532A30C0F31EF4909581959F4F08958E
S11306107AE0979F902D879F802D910D1124089546
S1070620F894FFCF78
S9030000FC
